:100000000C942A000C9434000C9434000C943400AA
:100010000C9434000C9434000C9434000C94340090
:100020000C9434000C9434000C9434000C94340080
:100030000C9434000C9434000C9434000C94340070
:100040000C9434000C9434000C9434000C94340060
:100050000C94340011241FBECFE5D4E0DEBFCDBF29
:100060000E9436000C944E000C9400008C9884B3CF
:100070008F6084BB85B3807F85BB80E0849BFECF8F
:10008000893051F08F5F95B3907F282F2F70922B7E
:1000900095BB8499FECFF2CF80E0F5CFF894FFCFE7
:00000001FF
