:100000000C942A000C9447000C9447000C94470071
:100010000C9447000C9447000C9447000C94F40295
:100020000C9447000C9447000C9447000C94470034
:100030000C9447000C9447000C9447000C94470024
:100040000C9447000C9447000C9447000C94470014
:100050000C94470011241FBECFE5D8E0DEBFCDBF12
:1000600010E0A0E6B0E0E0EBFFE002C005900D92EA
:10007000A636B107D9F724E0A6E6B0E001C01D928C
:10008000AC3BB207E1F70E9473010C94D6070C94C5
:100090000000823001F18330C9F1813009F050C095
:1000A000413059F428B381E090E002C0880F991FD5
:1000B0006A95E2F7822B88BB0895411141C028B3AD
:1000C00081E090E002C0880F991F6A95E2F7809561
:1000D000822388BB0895413059F425B381E090E034
:1000E00002C0880F991F6A95E2F7822B85BB08959D
:1000F000411126C025B381E090E002C0880F991F0E
:100100006A95E2F78095822385BB0895413059F4C2
:1001100022B381E090E002C0880F991F6A95E2F750
:10012000822B82BB089541110BC022B381E090E085
:1001300002C0880F991F6A95E2F78095822382BBDF
:100140000895CF93DF93EC010E94770580916600BC
:1001500090916700892B31F48AE690E090936700D4
:10016000809366002097C9F08091680090916900A3
:100170009E01280F391F273E43E0340788F4821779
:10018000930788F4C0916600D0916700C80FD91F0B
:10019000309369002093680008C0C0E0D0E005C03B
:1001A000C0E0D0E002C0C0E0D0E00E949706CE01DF
:1001B000DF91CF9108950895FC0103969283818386
:1001C0002FEF3FEF34832383968385839087878344
:1001D00010820895FC01118610860895CF93DF9355
:1001E000EB01488159814F3F2FEF520721F4FC0169
:1001F000A781B0850DC0DC01139601C0DF01129606
:10020000ED91FC9113972081318142175307B0F78C
:100210001296ED91FC911397FB83EA83D583C483F7
:10022000BD83AC831396DC93CE931297998788870E
:10023000FC0120812F5F2083DF91CF910895CF9320
:10024000DF93FC01A085B185C281D3818481958132
:100250009D838C83C481D581828193819B838A8392
:1002600011968D919C911297E817F90731F48481CA
:10027000958112969C938E931197118610868C917E
:1002800081508C938C91DF91CF91089540915404CB
:1002900081E048274093540462E082E00E944900D4
:1002A00088EE93E00E946C07F1CF4091530481E007
:1002B00048274093530467E082E00E94490080EDA4
:1002C00097E00E946C07F1CF4091520481E04827EB
:1002D0004093520463E083E00E94490088EB9BE076
:1002E0000E946C07F1CF0E94F702E12CF12C01E093
:1002F00020E030E046E950E060E070E086E491E024
:100300000E94F20402E020E030E046E950E060E0C4
:1003100070E085E591E00E94F20403E020E030E027
:1003200046E950E060E070E084E691E00E94F2046B
:100330000E944B05FFCF1BBC89EF8ABD8BE08EBDB1
:1003400089B7806189BF089531E1FC01308331971D
:1003500022E220833197A3E3A08331976083319712
:10036000708331971082319760E8608331971082F3
:10037000319762E06083319763E06083319764E096
:100380006083319765E06083319766E060833197E1
:1003900067E06083319768E06083319769E060834C
:1003A000319760E1608331973083319732E1308358
:1003B000319733E13083319734E13083319735E140
:1003C0003083319736E13083319737E1308331978D
:1003D00038E13083319739E13083319730E230832F
:1003E000319731E2308331972083319723E22083A4
:1003F0003197408331975083319726E2208331979C
:1004000027E22083319728E22083319729E2208355
:10041000319720E32083319721E320838697089545
:100420000E949B01A091BA04B091BB04CD91CDBFB5
:10043000DD91DEBFFF91EF91DF91CF91BF91AF9141
:100440009F918F917F916F915F914F913F912F91EC
:100450001F910F91FF90EF90DF90CF90BF90AF90E2
:100460009F908F907F906F905F904F903F902F90D4
:100470001F900F900FBE0F90089581E008950F9286
:100480000FB6F8940F921F9211242F923F924F9221
:100490005F926F927F928F929F92AF92BF92CF9214
:1004A000DF92EF92FF920F931F932F933F934F93FF
:1004B0005F936F937F938F939F93AF93BF93CF93EC
:1004C000DF93EF93FF93A091BA04B091BB040DB6F4
:1004D0000D920EB60D920E948207A091BA04B091BF
:1004E000BB04CD91CDBFDD91DEBFFF91EF91DF91D8
:1004F000CF91BF91AF919F918F917F916F915F91BC
:100500004F913F912F911F910F91FF90EF90DF90AE
:10051000CF90BF90AF909F908F907F906F905F90A3
:100520004F903F902F901F900F900FBE0F90089507
:100530000F920FB6F8940F921F9211242F923F92B0
:100540004F925F926F927F928F929F92AF92BF92E3
:10055000CF92DF92EF92FF920F931F932F933F93CF
:100560004F935F936F937F938F939F93AF93BF93BB
:10057000CF93DF93EF93FF93A091BA04B091BB04A4
:100580000DB60D920EB60D920E947D0581110E944E
:100590008207A091BA04B091BB04CD91CDBFDD918B
:1005A000DEBFFF91EF91DF91CF91BF91AF919F910E
:1005B0008F917F916F915F914F913F912F911F91FB
:1005C0000F91FF90EF90DF90CF90BF90AF909F90F2
:1005D0008F907F906F905F904F903F902F901F90E3
:1005E0000F900FBE0F9008950E94980218951ABAA6
:1005F00017BA84E884BB88E081BB1BBA18BA15BA65
:1006000012BA0895E0918204F091830480818111EF
:1006100007C08FEF9FEF909359048093580408957B
:10062000E0918204F09183040580F681E02D8081C1
:10063000918190935904809358040895CF93DF9348
:10064000EC018F89988D0E94DB00CE010E94DB00B7
:10065000DF91CF9108956F927F928F929F92AF9288
:10066000BF92CF92DF92EF920F931F93CF93DF93BE
:10067000CDB7DEB74C01F5018789908D2150310946
:100680003C01620E731E6115710589F415C0822F3D
:1006900090E0FB01E80FF91F3081D501A80FB91FC9
:1006A00059963C938081882329F02F5F01C020E078
:1006B000283068F3F50110A2F3E0FE1520F40F2EA8
:1006C000F3E0EF2EF02DF501E68AC50102960E94B7
:1006D000EA00C5010C960E94EA00F501B186A086E9
:1006E00084E090E08E19910995878487B38AA28A65
:1006F000A801B401C3010E94A401F5019183808384
:10070000C114D10419F0F601B182A082DF91CF911A
:100710001F910F91EF90DF90CF90BF90AF909F907F
:100720008F907F906F900895CF93C0E010C08C2F72
:1007300090E09C01220F331F220F331F220F331F23
:10074000820F931F8A569B4F0E94DC00CF5FC430FC
:1007500070F38DE894E00E94DC0084E894E00E944D
:10076000DC0087E794E00E94DC008EE694E00E94C3
:10077000DC0084E694E00E94DC008DE894E0909335
:1007800083048093820484E894E0909381048093AE
:100790008004CF910895CF93DF93EC010FB6F894C6
:1007A0000F92809163048F5F809363048091BA04F9
:1007B0009091BB04892B59F4D093BB04C093BA0425
:1007C00080916304813099F40E94940310C0809159
:1007D0005F0481110CC0E091BA04F091BB049689CA
:1007E0008E89891720F0D093BB04C093BA048091FE
:1007F0005A048F5F80935A048E89909160049817F1
:1008000010F48093600490E0FC01EE0FFF1FEE0FE8
:10081000FF1FEE0FFF1F8E0F9F1FFC01EA56FB4FBD
:100820000180F281E02DFD83EC83848195819F839B
:100830008E83A481B581CE01029613969C938E93EC
:10084000129795838483EE89F0E0CF01880F991F7A
:10085000880F991F880F991FE80FF91FEA56FB4F61
:10086000FB87EA8780818F5F80830F900FBE809126
:100870005F04882351F0E091BA04F091BB0496899B
:100880008E89981710F40E943F02DF91CF9108954E
:10089000CF93DF931CC00FB6F8940F92E0917304CE
:1008A000F0917404C681D781CE0102960E941F0187
:1008B0008091630481508093630480916D04815022
:1008C00080936D040F900FBECE010E941E03809195
:1008D0006D048111E0CFDF91CF9108950E9448040B
:1008E000FDCFFF920F931F93CF93DF93EC01F62E72
:1008F00000916104109162048091BA049091BB044C
:1009000002960E941F01CF3F8FEFD807B1F5FF205D
:10091000A1F1E4E6F4E0A181B281C091BA04D091E2
:10092000BB04BD83AC83C091BA04D091BB041496C0
:100930008D919C9115979F838E831496CD91DC9118
:1009400015978091BA049091BB0402969B838A8389
:100950008091BA049091BB04029615969C938E9355
:100960001497A091BA04B091BB041B96FC93EE932C
:100970001A9780818F5F80832FC0C00FD11FE091B5
:10098000BA04F091BB04D383C283C017D10768F4C3
:100990006091BA047091BB048091800490918104AD
:1009A0006E5F7F4F0E94EE0017C06091BA04709195
:1009B000BB0480918204909183046E5F7F4F0E94FC
:1009C000EE008091580490915904C817D90720F47B
:1009D000D0935904C0935804DF91CF911F910F9188
:1009E000FF9008952F923F924F925F926F927F9265
:1009F0008F929F92AF92BF92CF92DF92EF92FF922F
:100A00000F931F93CF93DF933C011B015A012901E0
:100A1000CA010E94A1006C01892B99F086E290E046
:100A20000E94A100EC01892B41F086E2FE011192A7
:100A30008A95E9F7D88ECF8A06C0C6010E94DB00EE
:100A400002C0C0E0D0E0209791F0950140E050E076
:100A5000812C912C5E016701E02E8201B101C3015E
:100A60000E942B03CE010E94CB0381E001C08FEFD7
:100A7000DF91CF911F910F91FF90EF90DF90CF907A
:100A8000BF90AF909F908F907F906F905F904F90AE
:100A90003F902F900895EF92FF920F930F2EF6E55F
:100AA000EF2EF4E0FF2EF02D00E020E030E046E4F1
:100AB00050E061E670E08EE694E00E94F20481303E
:100AC00081F4F8948FEF9FEF90935904809358042A
:100AD00081E080935F0410926204109261040E948E
:100AE0001002809160000F91FF90EF900895809127
:100AF00055048F5F8093550408950F931F93CF93F0
:100B0000DF9380915504811101C1C0916104D0919E
:100B100062048E010F5F1F4F109362040093610403
:100B200001151105B9F480918204909183042091FC
:100B30008004309181043093830420938204909345
:100B400081048093800480915B048F5F80935B04B9
:100B50000E940203809158049091590408171907C4
:100B600020F480E0B8C081E001C080E0E091820420
:100B7000F09183049081911107C02FEF3FEF3093E4
:100B8000590420935804A7C0E0918204F091830493
:100B90000580F681E02D0680F781E02D22813381EA
:100BA0000217130728F4309359042093580493C074
:100BB000A285B3852481358146815781E9015D8312
:100BC0004C832681378144815581E9015B834A83C7
:100BD00011962D913C911297AF014E5F5F4F2417F4
:100BE000350731F42681378112963C932E93119765
:100BF000138612869C9191509C93A489B589109775
:100C000019F12685378560897189E9017D836C83B7
:100C10002089318966857785E9017B836A8311960E
:100C20006D917C9112979F01245F3F4F621773076C
:100C300031F42089318912963C932E931197158AAD
:100C4000148A9C9191509C932689909160049217EC
:100C500010F42093600430E0D901AA0FBB1FAA0F43
:100C6000BB1FAA0FBB1F2A0F3B1FD901AA56BB4FA0
:100C700011960D90BC91A02DB583A48314962D914F
:100C80003C9115973783268314962D913C911597A7
:100C9000E9015B834A8315965C934E931497A6896A
:100CA000B0E09D01220F331F220F331F220F331F8D
:100CB000A20FB31FAA56BB4FB387A2879C919F5F19
:100CC0009C932689E091BA04F091BB04968992170F
:100CD00008F449CF4BCFE091BA04F091BB042689C8
:100CE00030E0F901EE0FFF1FEE0FFF1FEE0FFF1FA9
:100CF0002E0F3F1FF901EA56FB4F9081923008F00A
:100D000081E090915C0491110CC00CC080915D0455
:100D100090915E04019690935E0480935D0480E060
:100D200001C081E0DF91CF911F910F910895CF9382
:100D3000DF930FB6F8940F92809155048150809301
:100D40005504809155048111BFC0809163048111C5
:100D500096C0BDC0E0917C04F0917D040680F781CF
:100D6000E02DA489B589C685D785808991899D8321
:100D70008C83C089D189868597859B838A831196C8
:100D80002D913C911297CF010C962817390731F419
:100D90008089918912969C938E931197158A148A53
:100DA0008C9181508C93A285B385C481D581868135
:100DB00097819D838C83C681D781848195819B8314
:100DC0008A8311968D919C9112979F012E5F3F4FC0
:100DD0008217930731F48681978112969C938E93A4
:100DE0001197138612868C9181508C9386899091ED
:100DF0006004981710F48093600490E0DC01AA0F5F
:100E0000BB1FAA0FBB1FAA0FBB1F8A0F9B1FDC01B2
:100E1000AA56BB4F11960D90BC91A02DB583A4830B
:100E200014968D919C911597978386831496CD91F6
:100E3000DC9115973B832A8315963C932E93149748
:100E4000A689B0E0CD01880F991F880F991F880FE0
:100E5000991FA80FB91FAA56BB4FB387A2878C91C1
:100E60008F5F8C939689A091BA04B091BB0456967B
:100E70008C91981730F081E080935C0402C0E0E030
:100E8000F0E080917704811165CFEF2B11F00E9483
:100E90000203C0915D04D0915E04209769F00E9426
:100EA0007D05882319F081E080935C042197B9F7D0
:100EB00010925E0410925D0480915C04882331F0EE
:100EC0000E943F0281E003C080E001C080E00F90FB
:100ED0000FBEDF91CF910895CF93DF93EC01892B63
:100EE00049F00E94770560E0CE010E9471040E94E3
:100EF000970601C080E0811102C00E943F02DF918D
:100F0000CF91089580915504882321F081E080934A
:100F10005C04089510925C042091600401C021508B
:100F2000822F90E0FC01EE0FFF1FEE0FFF1FEE0F70
:100F3000FF1FE80FF91FEA56FB4F3081332379F387
:100F4000AC01440F551F440F551F440F551F480F48
:100F5000591FDF010180F281E02D0280F381E02D35
:100F60001296FC93EE93119747565B4FE417F507E3
:100F700029F442815381FD0152834183FC01EE0F2C
:100F8000FF1FEE0FFF1FEE0FFF1F8E0F9F1FFC01B5
:100F9000EA56FB4F0180F281E02D86819781909384
:100FA000BB048093BA04209360040895F894FFCFA3
:060FB0000349444C45001A
:00000001FF
