:100000000C942A000C9434000C9434000C943400AA
:100010000C9434000C9434000C9434000C94340090
:100020000C9434000C9434000C9434000C94340080
:100030000C9434000C9434000C9434000C94340070
:100040000C9434000C9434000C9434000C94340060
:100050000C94340011241FBECFE5D8E0DEBFCDBF25
:100060000E9436000C945E000C94000081B3806204
:1000700081BB81B3806481BB0E944D000E94570008
:10008000813319F0823329F0F9CF82B3806282BBC9
:10009000F5CF82B38F7D82BBF1CF82E08BB988E14F
:1000A0008AB986E880BD10BC8CE089B908955F9B51
:1000B000FECF8BB180648BB98CB10895F894FFCFDB
:00000001FF
