:100000000C942A000C9434000C9434000C943400AA
:100010000C9434000C9434000C9434000C94340090
:100020000C9434000C9434000C9434000C94340080
:100030000C9434000C9434000C9434000C94340070
:100040000C9434000C9434000C9434000C94340060
:100050000C94340011241FBECFE5D4E0DEBFCDBF29
:100060000E9436000C9483000C940000CF93DF9321
:100070001F92CDB7DEB7198281E390E0FC012081A9
:1000800081E390E02F7EFC01208384E390E0FC017B
:10009000208184E390E02F60FC01208385E390E0E1
:1000A000FC01208185E390E0207FFC01208380E338
:1000B00090E0FC018081882F90E080719927892B46
:1000C000B1F38981893011F4198203C089818F5F6E
:1000D000898385E390E0FC018081982F907F89815E
:1000E0008F70292F282B85E390E0FC0120830000EE
:1000F00080E390E0FC018081882F90E08071992757
:0A010000892BB1F7D4CFF894FFCF9C
:00000001FF
