:100000000C942A000C9434000C9434000C943400AA
:100010000C9434000C9434000C9434000C94340090
:100020000C9434000C9434000C9434000C94340080
:100030000C9434000C9434000C9434000C94340070
:100040000C9434000C9434000C9434000C94340060
:100050000C94340011241FBECFE5D4E0DEBFCDBF29
:100060000E9436000C944A000C940000B898C09A84
:10007000A09AA89A91E0B099FECF85B3892785BB55
:100080002FE936E881E0215030408040E1F700C0A0
:080090000000F1CFF894FFCF4E
:00000001FF
