:100000000C942A000C9434000C9434000C943400AA
:100010000C9434000C9434000C9434000C94340090
:100020000C9434000C9434000C9434000C94340080
:100030000C9434000C9434000C9434000C94340070
:100040000C9434000C9434000C9434000C94340060
:100050000C94340011241FBECFE5D4E0DEBFCDBF29
:100060000E9436000C9441000C940000D398A59A8D
:10007000AD98CB9B04C0AD9ACB99FECFFACFAD988B
:06008000FBCFF894FFCF56
:00000001FF
