:100000000C942A000C9409010C9432010C945B01AD
:100010000C943C000C943C000C943C000C943C0070
:100020000C943C000C943C000C943C000C943C0060
:100030000C943C000C943C000C943C000C943C0050
:100040000C943C000C943C000C943C000C943C0040
:100050000C943C0011241FBECFE5D8E0DEBFCDBF1D
:1000600020E0A0E6B0E001C01D92A636B207E1F79D
:100070000E9494010C94B6010C940000823001F1AE
:100080008330C9F1813009F050C0413059F428B3B0
:1000900081E090E002C0880F991F6A95E2F7822BF9
:1000A00088BB0895411141C028B381E090E002C0AF
:1000B000880F991F6A95E2F78095822388BB08957F
:1000C000413059F425B381E090E002C0880F991FB8
:1000D0006A95E2F7822B85BB0895411126C025B3AE
:1000E00081E090E002C0880F991F6A95E2F7809541
:1000F000822385BB0895413059F422B381E090E01A
:1001000002C0880F991F6A95E2F7822B82BB08957F
:1001100041110BC022B381E090E002C0880F991F0B
:100120006A95E2F78095822382BB0895813061F160
:1001300020F0823009F44FC008958BB780648BBFE4
:100140006130D9F098F0623019F0633041F00895D1
:1001500085B78E7F85BF85B78D7F85BF089585B7AD
:10016000816085BF85B78D7F85BF089585B78E7FF8
:1001700085BF85B7826085BF089585B7816085BFDB
:1001800085B7826085BF08958BB780688BBF61306B
:10019000D9F098F0623019F0633041F0089585B7D6
:1001A0008B7F85BF85B7877F85BF089585B78460BE
:1001B00085BF85B7877F85BF089585B78B7F85BF4E
:1001C00085B7886085BF089585B7846085BF85B78A
:1001D000886085BF08958BB780628BBF662319F056
:1001E000613029F0089584B78B7F84BF089584B768
:1001F000846084BF08956115710551F0833040F427
:10020000E82FF0E0EE0FFF1FE05AFF4F718360838D
:1002100008951F920F920FB60F9211242F933F93C0
:100220004F935F936F937F938F939F93AF93BF93FE
:10023000EF93FF93E0916000F0916100309709F037
:100240000995FF91EF91BF91AF919F918F917F9110
:100250006F915F914F913F912F910F900FBE0F9033
:100260001F9018951F920F920FB60F9211242F9383
:100270003F934F935F936F937F938F939F93AF932E
:10028000BF93EF93FF93E0916200F091630030978A
:1002900009F00995FF91EF91BF91AF919F918F91D7
:1002A0007F916F915F914F913F912F910F900FBE72
:1002B0000F901F9018951F920F920FB60F92112456
:1002C0002F933F934F935F936F937F938F939F935E
:1002D000AF93BF93EF93FF93E0916400F0916500BB
:1002E000309709F00995FF91EF91BF91AF919F91E0
:1002F0008F917F916F915F914F913F912F910F90CF
:100300000FBE0F901F9018958FB780688FBF08950C
:1003100041E062E082E00E943E00089540E062E039
:1003200082E00E943E0008950E94AB010E94840179
:1003300060E080E00E94960060E081E00E9496000C
:1003400068E871E080E00E94FB006EE871E081E007
:100350000E94FB00FFCF1ABA17BA84E084BB11BA1F
:100360001BBA18BA15BA8CE082BB0895F894FFCF77
:00000001FF
