:100000000C942A000C9434000C9434000C943400AA
:100010000C9434000C9434000C9434000C94340090
:100020000C9434000C9434000C9434000C94340080
:100030000C9434000C9434000C9434000C94340070
:100040000C9434000C9434000C9434000C94340060
:100050000C94340011241FBECFE5D4E0DEBFCDBF29
:100060000E9436000C9460000C94000087B38360FB
:1000700087BB88B38C7F88BB84B3836084BB85B324
:100080008C7F85BB85B38C7F85BBB09B10C0B19B3B
:1000900003C085B3836085BBA89A2FE986E891E009
:1000A000215080409040E1F700C00000EBCFB19BB1
:1000B000E9CFB09B03C085B3836085BBA99AEDCF20
:0400C000F894FFCFE2
:00000001FF
